{
  "_format": "hh-sol-artifact-1",
  "contractName": "AffiliateTracker",
  "sourceName": "contracts/AffiliateTracker.sol",
  "abi": [
    {
      "inputs": [
        {
          "internalType": "address payable",
          "name": "_team1Wallet",
          "type": "address"
        },
        {
          "internalType": "address payable",
          "name": "_team2Wallet",
          "type": "address"
        }
      ],
      "stateMutability": "nonpayable",
      "type": "constructor"
    },
    {
      "inputs": [
        {
          "internalType": "address",
          "name": "",
          "type": "address"
        }
      ],
      "name": "affiliateEarnings",
      "outputs": [
        {
          "internalType": "uint256",
          "name": "",
          "type": "uint256"
        }
      ],
      "stateMutability": "view",
      "type": "function"
    },
    {
      "inputs": [
        {
          "internalType": "address",
          "name": "",
          "type": "address"
        }
      ],
      "name": "affiliateMintCount",
      "outputs": [
        {
          "internalType": "uint256",
          "name": "",
          "type": "uint256"
        }
      ],
      "stateMutability": "view",
      "type": "function"
    },
    {
      "inputs": [
        {
          "internalType": "string",
          "name": "code",
          "type": "string"
        }
      ],
      "name": "applyAffiliate",
      "outputs": [
        {
          "internalType": "address payable",
          "name": "",
          "type": "address"
        },
        {
          "internalType": "uint256",
          "name": "",
          "type": "uint256"
        }
      ],
      "stateMutability": "view",
      "type": "function"
    },
    {
      "inputs": [
        {
          "internalType": "address",
          "name": "affiliate",
          "type": "address"
        }
      ],
      "name": "getAffiliateEarnings",
      "outputs": [
        {
          "internalType": "uint256",
          "name": "",
          "type": "uint256"
        }
      ],
      "stateMutability": "view",
      "type": "function"
    },
    {
      "inputs": [
        {
          "internalType": "uint256",
          "name": "totalMints",
          "type": "uint256"
        }
      ],
      "name": "getAffiliateReward",
      "outputs": [
        {
          "internalType": "uint256",
          "name": "",
          "type": "uint256"
        }
      ],
      "stateMutability": "pure",
      "type": "function"
    },
    {
      "inputs": [],
      "name": "getTopAffiliates",
      "outputs": [
        {
          "internalType": "address[4]",
          "name": "",
          "type": "address[4]"
        }
      ],
      "stateMutability": "view",
      "type": "function"
    },
    {
      "inputs": [],
      "name": "getTopAffiliatesCount",
      "outputs": [
        {
          "internalType": "uint256",
          "name": "count",
          "type": "uint256"
        }
      ],
      "stateMutability": "view",
      "type": "function"
    },
    {
      "inputs": [],
      "name": "tokenTeam1Wallet",
      "outputs": [
        {
          "internalType": "address payable",
          "name": "",
          "type": "address"
        }
      ],
      "stateMutability": "view",
      "type": "function"
    },
    {
      "inputs": [],
      "name": "tokenTeam2Wallet",
      "outputs": [
        {
          "internalType": "address payable",
          "name": "",
          "type": "address"
        }
      ],
      "stateMutability": "view",
      "type": "function"
    },
    {
      "inputs": [
        {
          "internalType": "uint256",
          "name": "",
          "type": "uint256"
        }
      ],
      "name": "topAffiliates",
      "outputs": [
        {
          "internalType": "address",
          "name": "affiliate",
          "type": "address"
        },
        {
          "internalType": "uint256",
          "name": "mints",
          "type": "uint256"
        }
      ],
      "stateMutability": "view",
      "type": "function"
    },
    {
      "inputs": [
        {
          "internalType": "address",
          "name": "affiliate",
          "type": "address"
        },
        {
          "internalType": "uint256",
          "name": "quantity",
          "type": "uint256"
        },
        {
          "internalType": "uint256",
          "name": "totalCost",
          "type": "uint256"
        },
        {
          "internalType": "uint256",
          "name": "revenueShare",
          "type": "uint256"
        }
      ],
      "name": "updateLeaderboard",
      "outputs": [],
      "stateMutability": "nonpayable",
      "type": "function"
    },
    {
      "inputs": [
        {
          "internalType": "address",
          "name": "sender",
          "type": "address"
        }
      ],
      "name": "withdrawAffiliateEarnings",
      "outputs": [],
      "stateMutability": "nonpayable",
      "type": "function"
    }
  ],
  "bytecode": "0x6080604052348015600f57600080fd5b50604051610a0e380380610a0e833981016040819052602c916077565b600a80546001600160a01b039384166001600160a01b031991821617909155600b805492909316911617905560a5565b80516001600160a01b0381168114607257600080fd5b919050565b60008060408385031215608957600080fd5b609083605c565b9150609c60208401605c565b90509250929050565b61095a806100b46000396000f3fe608060405234801561001057600080fd5b50600436106100b45760003560e01c8063ba9cef5b11610071578063ba9cef5b1461019c578063c81b0007146101af578063ce91dab3146101c2578063d62b9bec146101d5578063d87d6144146101e8578063ebddb0791461020857600080fd5b80630d495eed146100b95780632bc116a9146100e95780634c2eb2e51461011b5780638675ad9c14610149578063a0660cb214610172578063b5ecff2514610187575b600080fd5b600b546100cc906001600160a01b031681565b6040516001600160a01b0390911681526020015b60405180910390f35b6100fc6100f73660046106e0565b610210565b604080516001600160a01b0390931683526020830191909152016100e0565b61013b6101293660046107b0565b60086020526000908152604090205481565b6040519081526020016100e0565b61013b6101573660046107b0565b6001600160a01b031660009081526009602052604090205490565b6101856101803660046107d2565b610349565b005b61018f6104b4565b6040516100e0919061080b565b61013b6101aa366004610845565b610524565b600a546100cc906001600160a01b031681565b6101856101d03660046107b0565b610583565b6100fc6101e3366004610845565b610632565b61013b6101f63660046107b0565b60096020526000908152604090205481565b61013b61065e565b600080604051602001610234906a544f4b454e5f5445414d3160a81b8152600b0190565b604051602081830303815290604052805190602001208360405160200161025b919061085e565b604051602081830303815290604052805190602001200361028b575050600a546001600160a01b03169160329150565b6040516a2a27a5a2a72faa22a0a69960a91b6020820152602b0160405160208183030381529060405280519060200120836040516020016102cc919061085e565b60405160208183030381529060405280519060200120036102fc575050600b546001600160a01b03169160329150565b60405162461bcd60e51b815260206004820152601e60248201527f416666696c6961746520636f646520646f6573206e6f7420657869737421000060448201526064015b60405180910390fd5b6001600160a01b038416600090815260086020526040812080548592906103719084906108a3565b909155506064905061038382846108bc565b61038d91906108d3565b6001600160a01b038516600090815260096020526040812080549091906103b59084906108a3565b9091555050600180546000915b60048110156104165781600082600481106103df576103df6108f5565b6002020160010154101561040e5760008160048110610400576104006108f5565b600202016001015491508092505b6001016103c2565b506001600160a01b0386166000908152600860205260409020548110156104ac576040805180820182526001600160a01b0388168082526000908152600860209081529281205492820192909252908360048110610476576104766108f5565b82516002919091029190910180546001600160a01b0319166001600160a01b039092169190911781556020909101516001909101555b505050505050565b6104bc6106ac565b6104c46106ac565b60005b600481101561051e57600081600481106104e3576104e36108f5565b60020201546001600160a01b0316828260048110610503576105036108f5565b6001600160a01b0390921660209290920201526001016104c7565b50919050565b60006064821061053657506041919050565b6033821061054657506028919050565b601a821061055657506014919050565b600b82106105665750600a919050565b6001821061057657506005919050565b506000919050565b919050565b6001600160a01b038116600090815260096020526040902054806105e95760405162461bcd60e51b815260206004820152601760248201527f4e6f206561726e696e677320746f2077697468647261770000000000000000006044820152606401610340565b6001600160a01b0382166000818152600960205260408082208290555183156108fc0291849190818181858888f1935050505015801561062d573d6000803e3d6000fd5b505050565b6000816004811061064257600080fd5b6002020180546001909101546001600160a01b03909116915082565b6000805b60048110156106a857600080826004811061067f5761067f6108f5565b60020201546001600160a01b0316146106a0578161069c8161090b565b9250505b600101610662565b5090565b60405180608001604052806004906020820280368337509192915050565b634e487b7160e01b600052604160045260246000fd5b6000602082840312156106f257600080fd5b813567ffffffffffffffff81111561070957600080fd5b8201601f8101841361071a57600080fd5b803567ffffffffffffffff811115610734576107346106ca565b604051601f8201601f19908116603f0116810167ffffffffffffffff81118282101715610763576107636106ca565b60405281815282820160200186101561077b57600080fd5b81602084016020830137600091810160200191909152949350505050565b80356001600160a01b038116811461057e57600080fd5b6000602082840312156107c257600080fd5b6107cb82610799565b9392505050565b600080600080608085870312156107e857600080fd5b6107f185610799565b966020860135965060408601359560600135945092505050565b60808101818360005b600481101561083c5781516001600160a01b0316835260209283019290910190600101610814565b50505092915050565b60006020828403121561085757600080fd5b5035919050565b6000825160005b8181101561087f5760208186018101518583015201610865565b506000920191825250919050565b634e487b7160e01b600052601160045260246000fd5b808201808211156108b6576108b661088d565b92915050565b80820281158282048414176108b6576108b661088d565b6000826108f057634e487b7160e01b600052601260045260246000fd5b500490565b634e487b7160e01b600052603260045260246000fd5b60006001820161091d5761091d61088d565b506001019056fea26469706673582212207f678b3fe8c72416631abc95b7d2d1a68ff3330bc51ffa3f051e0b62593f3d3664736f6c634300081c0033",
  "linkReferences": {},
  "deployedLinkReferences": {}
}