{
  "_format": "hh-sol-artifact-1",
  "contractName": "DutchAuctionNFT",
  "sourceName": "contracts/DutchAuctionNFT.sol",
  "abi": [
    {
      "inputs": [
        {
          "internalType": "uint256",
          "name": "_maxSupply",
          "type": "uint256"
        },
        {
          "internalType": "string",
          "name": "initialBaseURI",
          "type": "string"
        },
        {
          "internalType": "string",
          "name": "_metadataRootHash",
          "type": "string"
        },
        {
          "internalType": "address",
          "name": "_auctionLogic",
          "type": "address"
        },
        {
          "internalType": "address",
          "name": "_affiliateTracker",
          "type": "address"
        }
      ],
      "stateMutability": "nonpayable",
      "type": "constructor"
    },
    {
      "inputs": [],
      "name": "ApprovalCallerNotOwnerNorApproved",
      "type": "error"
    },
    {
      "inputs": [],
      "name": "ApprovalQueryForNonexistentToken",
      "type": "error"
    },
    {
      "inputs": [],
      "name": "AuctionAlreadyStarted",
      "type": "error"
    },
    {
      "inputs": [],
      "name": "BalanceQueryForZeroAddress",
      "type": "error"
    },
    {
      "inputs": [
        {
          "internalType": "uint256",
          "name": "numerator",
          "type": "uint256"
        },
        {
          "internalType": "uint256",
          "name": "denominator",
          "type": "uint256"
        }
      ],
      "name": "ERC2981InvalidDefaultRoyalty",
      "type": "error"
    },
    {
      "inputs": [
        {
          "internalType": "address",
          "name": "receiver",
          "type": "address"
        }
      ],
      "name": "ERC2981InvalidDefaultRoyaltyReceiver",
      "type": "error"
    },
    {
      "inputs": [
        {
          "internalType": "uint256",
          "name": "tokenId",
          "type": "uint256"
        },
        {
          "internalType": "uint256",
          "name": "numerator",
          "type": "uint256"
        },
        {
          "internalType": "uint256",
          "name": "denominator",
          "type": "uint256"
        }
      ],
      "name": "ERC2981InvalidTokenRoyalty",
      "type": "error"
    },
    {
      "inputs": [
        {
          "internalType": "uint256",
          "name": "tokenId",
          "type": "uint256"
        },
        {
          "internalType": "address",
          "name": "receiver",
          "type": "address"
        }
      ],
      "name": "ERC2981InvalidTokenRoyaltyReceiver",
      "type": "error"
    },
    {
      "inputs": [],
      "name": "EnforcedPause",
      "type": "error"
    },
    {
      "inputs": [],
      "name": "ExceedsMaxSupply",
      "type": "error"
    },
    {
      "inputs": [],
      "name": "ExceedsPerWalletLimit",
      "type": "error"
    },
    {
      "inputs": [],
      "name": "ExceedsWhitelistSupply",
      "type": "error"
    },
    {
      "inputs": [],
      "name": "ExpectedPause",
      "type": "error"
    },
    {
      "inputs": [],
      "name": "IncorrectSupplyForExotics",
      "type": "error"
    },
    {
      "inputs": [],
      "name": "InsufficientETH",
      "type": "error"
    },
    {
      "inputs": [],
      "name": "InsufficientPayment",
      "type": "error"
    },
    {
      "inputs": [],
      "name": "InvalidRevealTime",
      "type": "error"
    },
    {
      "inputs": [],
      "name": "MetadataAlreadyRevealed",
      "type": "error"
    },
    {
      "inputs": [],
      "name": "MetadataLocked",
      "type": "error"
    },
    {
      "inputs": [],
      "name": "MetadataRevealTimeNotSet",
      "type": "error"
    },
    {
      "inputs": [],
      "name": "MintCooldownActive",
      "type": "error"
    },
    {
      "inputs": [],
      "name": "MintERC2309QuantityExceedsLimit",
      "type": "error"
    },
    {
      "inputs": [],
      "name": "MintToZeroAddress",
      "type": "error"
    },
    {
      "inputs": [],
      "name": "MintZeroQuantity",
      "type": "error"
    },
    {
      "inputs": [],
      "name": "NoAffiliateEarnings",
      "type": "error"
    },
    {
      "inputs": [],
      "name": "NotCompatibleWithSpotMints",
      "type": "error"
    },
    {
      "inputs": [],
      "name": "NotEligibleForWhitelist",
      "type": "error"
    },
    {
      "inputs": [],
      "name": "NotEnoughAffiliates",
      "type": "error"
    },
    {
      "inputs": [],
      "name": "NotEnoughNFTsLeft",
      "type": "error"
    },
    {
      "inputs": [
        {
          "internalType": "address",
          "name": "owner",
          "type": "address"
        }
      ],
      "name": "OwnableInvalidOwner",
      "type": "error"
    },
    {
      "inputs": [
        {
          "internalType": "address",
          "name": "account",
          "type": "address"
        }
      ],
      "name": "OwnableUnauthorizedAccount",
      "type": "error"
    },
    {
      "inputs": [],
      "name": "OwnerQueryForNonexistentToken",
      "type": "error"
    },
    {
      "inputs": [],
      "name": "OwnershipNotInitializedForExtraData",
      "type": "error"
    },
    {
      "inputs": [],
      "name": "PublicMintAlreadyStarted",
      "type": "error"
    },
    {
      "inputs": [],
      "name": "PublicMintNotStarted",
      "type": "error"
    },
    {
      "inputs": [],
      "name": "PublicSaleNotStarted",
      "type": "error"
    },
    {
      "inputs": [],
      "name": "ReentrancyGuardReentrantCall",
      "type": "error"
    },
    {
      "inputs": [],
      "name": "SequentialMintExceedsLimit",
      "type": "error"
    },
    {
      "inputs": [],
      "name": "SequentialUpToTooSmall",
      "type": "error"
    },
    {
      "inputs": [],
      "name": "SpotMintTokenIdTooSmall",
      "type": "error"
    },
    {
      "inputs": [],
      "name": "TeamAlreadyMinted",
      "type": "error"
    },
    {
      "inputs": [],
      "name": "TokenAlreadyExists",
      "type": "error"
    },
    {
      "inputs": [],
      "name": "TokenIdsNotStrictlyAscending",
      "type": "error"
    },
    {
      "inputs": [],
      "name": "TooEarlyToRevealMetadata",
      "type": "error"
    },
    {
      "inputs": [],
      "name": "TransferCallerNotOwnerNorApproved",
      "type": "error"
    },
    {
      "inputs": [],
      "name": "TransferFromIncorrectOwner",
      "type": "error"
    },
    {
      "inputs": [],
      "name": "TransferToNonERC721ReceiverImplementer",
      "type": "error"
    },
    {
      "inputs": [],
      "name": "TransferToZeroAddress",
      "type": "error"
    },
    {
      "inputs": [],
      "name": "URIQueryForNonexistentToken",
      "type": "error"
    },
    {
      "inputs": [],
      "name": "WhitelistNotActive",
      "type": "error"
    },
    {
      "inputs": [],
      "name": "WhitelistSaleAlreadyStarted",
      "type": "error"
    },
    {
      "inputs": [],
      "name": "WhitelistSaleEnded",
      "type": "error"
    },
    {
      "inputs": [],
      "name": "WhitelistSaleNotEnded",
      "type": "error"
    },
    {
      "inputs": [],
      "name": "WithdrawFailed",
      "type": "error"
    },
    {
      "anonymous": false,
      "inputs": [
        {
          "indexed": true,
          "internalType": "address",
          "name": "owner",
          "type": "address"
        },
        {
          "indexed": true,
          "internalType": "address",
          "name": "approved",
          "type": "address"
        },
        {
          "indexed": true,
          "internalType": "uint256",
          "name": "tokenId",
          "type": "uint256"
        }
      ],
      "name": "Approval",
      "type": "event"
    },
    {
      "anonymous": false,
      "inputs": [
        {
          "indexed": true,
          "internalType": "address",
          "name": "owner",
          "type": "address"
        },
        {
          "indexed": true,
          "internalType": "address",
          "name": "operator",
          "type": "address"
        },
        {
          "indexed": false,
          "internalType": "bool",
          "name": "approved",
          "type": "bool"
        }
      ],
      "name": "ApprovalForAll",
      "type": "event"
    },
    {
      "anonymous": false,
      "inputs": [
        {
          "indexed": false,
          "internalType": "uint256",
          "name": "newDuration",
          "type": "uint256"
        }
      ],
      "name": "AuctionDurationUpdated",
      "type": "event"
    },
    {
      "anonymous": false,
      "inputs": [
        {
          "indexed": true,
          "internalType": "uint256",
          "name": "fromTokenId",
          "type": "uint256"
        },
        {
          "indexed": false,
          "internalType": "uint256",
          "name": "toTokenId",
          "type": "uint256"
        },
        {
          "indexed": true,
          "internalType": "address",
          "name": "from",
          "type": "address"
        },
        {
          "indexed": true,
          "internalType": "address",
          "name": "to",
          "type": "address"
        }
      ],
      "name": "ConsecutiveTransfer",
      "type": "event"
    },
    {
      "anonymous": false,
      "inputs": [
        {
          "indexed": false,
          "internalType": "string",
          "name": "rootHash",
          "type": "string"
        }
      ],
      "name": "MetadataLockedUpdated",
      "type": "event"
    },
    {
      "anonymous": false,
      "inputs": [],
      "name": "MetadataRevealed",
      "type": "event"
    },
    {
      "anonymous": false,
      "inputs": [
        {
          "indexed": false,
          "internalType": "string",
          "name": "newMetadataRootHash",
          "type": "string"
        }
      ],
      "name": "MetadataRootHashUpdated",
      "type": "event"
    },
    {
      "anonymous": false,
      "inputs": [
        {
          "indexed": true,
          "internalType": "address",
          "name": "minter",
          "type": "address"
        },
        {
          "indexed": false,
          "internalType": "uint256",
          "name": "quantity",
          "type": "uint256"
        },
        {
          "indexed": false,
          "internalType": "uint256",
          "name": "totalCost",
          "type": "uint256"
        }
      ],
      "name": "Minted",
      "type": "event"
    },
    {
      "anonymous": false,
      "inputs": [
        {
          "indexed": true,
          "internalType": "address",
          "name": "previousOwner",
          "type": "address"
        },
        {
          "indexed": true,
          "internalType": "address",
          "name": "newOwner",
          "type": "address"
        }
      ],
      "name": "OwnershipTransferred",
      "type": "event"
    },
    {
      "anonymous": false,
      "inputs": [
        {
          "indexed": false,
          "internalType": "address",
          "name": "account",
          "type": "address"
        }
      ],
      "name": "Paused",
      "type": "event"
    },
    {
      "anonymous": false,
      "inputs": [
        {
          "indexed": true,
          "internalType": "address",
          "name": "from",
          "type": "address"
        },
        {
          "indexed": true,
          "internalType": "address",
          "name": "to",
          "type": "address"
        },
        {
          "indexed": true,
          "internalType": "uint256",
          "name": "tokenId",
          "type": "uint256"
        }
      ],
      "name": "Transfer",
      "type": "event"
    },
    {
      "anonymous": false,
      "inputs": [
        {
          "indexed": false,
          "internalType": "address",
          "name": "account",
          "type": "address"
        }
      ],
      "name": "Unpaused",
      "type": "event"
    },
    {
      "inputs": [],
      "name": "AUCTION_DURATION",
      "outputs": [
        {
          "internalType": "uint256",
          "name": "",
          "type": "uint256"
        }
      ],
      "stateMutability": "view",
      "type": "function"
    },
    {
      "inputs": [],
      "name": "MAX_SUPPLY",
      "outputs": [
        {
          "internalType": "uint256",
          "name": "",
          "type": "uint256"
        }
      ],
      "stateMutability": "view",
      "type": "function"
    },
    {
      "inputs": [],
      "name": "MAX_WHITELIST_MINT_PER_WALLET",
      "outputs": [
        {
          "internalType": "uint256",
          "name": "",
          "type": "uint256"
        }
      ],
      "stateMutability": "view",
      "type": "function"
    },
    {
      "inputs": [],
      "name": "MINT_COOLDOWN",
      "outputs": [
        {
          "internalType": "uint256",
          "name": "",
          "type": "uint256"
        }
      ],
      "stateMutability": "view",
      "type": "function"
    },
    {
      "inputs": [],
      "name": "TEAM_ALLOCATION",
      "outputs": [
        {
          "internalType": "uint256",
          "name": "",
          "type": "uint256"
        }
      ],
      "stateMutability": "view",
      "type": "function"
    },
    {
      "inputs": [],
      "name": "WHITELIST_DURATION",
      "outputs": [
        {
          "internalType": "uint256",
          "name": "",
          "type": "uint256"
        }
      ],
      "stateMutability": "view",
      "type": "function"
    },
    {
      "inputs": [],
      "name": "WHITELIST_SUPPLY",
      "outputs": [
        {
          "internalType": "uint256",
          "name": "",
          "type": "uint256"
        }
      ],
      "stateMutability": "view",
      "type": "function"
    },
    {
      "inputs": [],
      "name": "affiliateTracker",
      "outputs": [
        {
          "internalType": "contract AffiliateTracker",
          "name": "",
          "type": "address"
        }
      ],
      "stateMutability": "view",
      "type": "function"
    },
    {
      "inputs": [
        {
          "internalType": "address",
          "name": "to",
          "type": "address"
        },
        {
          "internalType": "uint256",
          "name": "tokenId",
          "type": "uint256"
        }
      ],
      "name": "approve",
      "outputs": [],
      "stateMutability": "payable",
      "type": "function"
    },
    {
      "inputs": [],
      "name": "auctionDuration",
      "outputs": [
        {
          "internalType": "uint256",
          "name": "",
          "type": "uint256"
        }
      ],
      "stateMutability": "view",
      "type": "function"
    },
    {
      "inputs": [],
      "name": "auctionLogic",
      "outputs": [
        {
          "internalType": "contract DutchAuctionLogic",
          "name": "",
          "type": "address"
        }
      ],
      "stateMutability": "view",
      "type": "function"
    },
    {
      "inputs": [],
      "name": "auctionStartTime",
      "outputs": [
        {
          "internalType": "uint256",
          "name": "",
          "type": "uint256"
        }
      ],
      "stateMutability": "view",
      "type": "function"
    },
    {
      "inputs": [
        {
          "internalType": "address",
          "name": "owner",
          "type": "address"
        }
      ],
      "name": "balanceOf",
      "outputs": [
        {
          "internalType": "uint256",
          "name": "",
          "type": "uint256"
        }
      ],
      "stateMutability": "view",
      "type": "function"
    },
    {
      "inputs": [],
      "name": "baseURI",
      "outputs": [
        {
          "internalType": "string",
          "name": "",
          "type": "string"
        }
      ],
      "stateMutability": "view",
      "type": "function"
    },
    {
      "inputs": [
        {
          "internalType": "uint256",
          "name": "quantity",
          "type": "uint256"
        },
        {
          "internalType": "address",
          "name": "affiliate",
          "type": "address"
        }
      ],
      "name": "batchMint",
      "outputs": [],
      "stateMutability": "payable",
      "type": "function"
    },
    {
      "inputs": [
        {
          "internalType": "address",
          "name": "user",
          "type": "address"
        },
        {
          "internalType": "address",
          "name": "token",
          "type": "address"
        }
      ],
      "name": "checkWhitelist",
      "outputs": [
        {
          "internalType": "bool",
          "name": "",
          "type": "bool"
        }
      ],
      "stateMutability": "view",
      "type": "function"
    },
    {
      "inputs": [],
      "name": "distributeExoticNFTs",
      "outputs": [],
      "stateMutability": "nonpayable",
      "type": "function"
    },
    {
      "inputs": [],
      "name": "endPrice",
      "outputs": [
        {
          "internalType": "uint256",
          "name": "",
          "type": "uint256"
        }
      ],
      "stateMutability": "view",
      "type": "function"
    },
    {
      "inputs": [
        {
          "internalType": "uint256",
          "name": "",
          "type": "uint256"
        }
      ],
      "name": "exoticClaimed",
      "outputs": [
        {
          "internalType": "bool",
          "name": "",
          "type": "bool"
        }
      ],
      "stateMutability": "view",
      "type": "function"
    },
    {
      "inputs": [
        {
          "internalType": "uint256",
          "name": "",
          "type": "uint256"
        }
      ],
      "name": "exoticTokenIds",
      "outputs": [
        {
          "internalType": "uint256",
          "name": "",
          "type": "uint256"
        }
      ],
      "stateMutability": "view",
      "type": "function"
    },
    {
      "inputs": [
        {
          "internalType": "uint256",
          "name": "tokenId",
          "type": "uint256"
        }
      ],
      "name": "getApproved",
      "outputs": [
        {
          "internalType": "address",
          "name": "",
          "type": "address"
        }
      ],
      "stateMutability": "view",
      "type": "function"
    },
    {
      "inputs": [],
      "name": "getCurrentPrice",
      "outputs": [
        {
          "internalType": "uint256",
          "name": "",
          "type": "uint256"
        }
      ],
      "stateMutability": "view",
      "type": "function"
    },
    {
      "inputs": [],
      "name": "getWhitelistPrice",
      "outputs": [
        {
          "internalType": "uint256",
          "name": "",
          "type": "uint256"
        }
      ],
      "stateMutability": "view",
      "type": "function"
    },
    {
      "inputs": [
        {
          "internalType": "address",
          "name": "owner",
          "type": "address"
        },
        {
          "internalType": "address",
          "name": "operator",
          "type": "address"
        }
      ],
      "name": "isApprovedForAll",
      "outputs": [
        {
          "internalType": "bool",
          "name": "",
          "type": "bool"
        }
      ],
      "stateMutability": "view",
      "type": "function"
    },
    {
      "inputs": [
        {
          "internalType": "address",
          "name": "",
          "type": "address"
        }
      ],
      "name": "lastMintTimeStamp",
      "outputs": [
        {
          "internalType": "uint256",
          "name": "",
          "type": "uint256"
        }
      ],
      "stateMutability": "view",
      "type": "function"
    },
    {
      "inputs": [],
      "name": "lockMetadata",
      "outputs": [],
      "stateMutability": "nonpayable",
      "type": "function"
    },
    {
      "inputs": [],
      "name": "maxSupply",
      "outputs": [
        {
          "internalType": "uint256",
          "name": "",
          "type": "uint256"
        }
      ],
      "stateMutability": "view",
      "type": "function"
    },
    {
      "inputs": [],
      "name": "metadataLocked",
      "outputs": [
        {
          "internalType": "bool",
          "name": "",
          "type": "bool"
        }
      ],
      "stateMutability": "view",
      "type": "function"
    },
    {
      "inputs": [],
      "name": "metadataRevealTime",
      "outputs": [
        {
          "internalType": "uint256",
          "name": "",
          "type": "uint256"
        }
      ],
      "stateMutability": "view",
      "type": "function"
    },
    {
      "inputs": [],
      "name": "metadataRevealed",
      "outputs": [
        {
          "internalType": "bool",
          "name": "",
          "type": "bool"
        }
      ],
      "stateMutability": "view",
      "type": "function"
    },
    {
      "inputs": [],
      "name": "metadataRootHash",
      "outputs": [
        {
          "internalType": "string",
          "name": "",
          "type": "string"
        }
      ],
      "stateMutability": "view",
      "type": "function"
    },
    {
      "inputs": [
        {
          "internalType": "address",
          "name": "teamWallet",
          "type": "address"
        }
      ],
      "name": "mintToTeam",
      "outputs": [],
      "stateMutability": "nonpayable",
      "type": "function"
    },
    {
      "inputs": [],
      "name": "name",
      "outputs": [
        {
          "internalType": "string",
          "name": "",
          "type": "string"
        }
      ],
      "stateMutability": "view",
      "type": "function"
    },
    {
      "inputs": [],
      "name": "owner",
      "outputs": [
        {
          "internalType": "address",
          "name": "",
          "type": "address"
        }
      ],
      "stateMutability": "view",
      "type": "function"
    },
    {
      "inputs": [
        {
          "internalType": "uint256",
          "name": "tokenId",
          "type": "uint256"
        }
      ],
      "name": "ownerOf",
      "outputs": [
        {
          "internalType": "address",
          "name": "",
          "type": "address"
        }
      ],
      "stateMutability": "view",
      "type": "function"
    },
    {
      "inputs": [],
      "name": "pause",
      "outputs": [],
      "stateMutability": "nonpayable",
      "type": "function"
    },
    {
      "inputs": [],
      "name": "paused",
      "outputs": [
        {
          "internalType": "bool",
          "name": "",
          "type": "bool"
        }
      ],
      "stateMutability": "view",
      "type": "function"
    },
    {
      "inputs": [],
      "name": "publicMintStartTime",
      "outputs": [
        {
          "internalType": "uint256",
          "name": "",
          "type": "uint256"
        }
      ],
      "stateMutability": "view",
      "type": "function"
    },
    {
      "inputs": [],
      "name": "renounceOwnership",
      "outputs": [],
      "stateMutability": "nonpayable",
      "type": "function"
    },
    {
      "inputs": [],
      "name": "revealMetadata",
      "outputs": [],
      "stateMutability": "nonpayable",
      "type": "function"
    },
    {
      "inputs": [
        {
          "internalType": "uint256",
          "name": "tokenId",
          "type": "uint256"
        },
        {
          "internalType": "uint256",
          "name": "salePrice",
          "type": "uint256"
        }
      ],
      "name": "royaltyInfo",
      "outputs": [
        {
          "internalType": "address",
          "name": "receiver",
          "type": "address"
        },
        {
          "internalType": "uint256",
          "name": "amount",
          "type": "uint256"
        }
      ],
      "stateMutability": "view",
      "type": "function"
    },
    {
      "inputs": [
        {
          "internalType": "address",
          "name": "from",
          "type": "address"
        },
        {
          "internalType": "address",
          "name": "to",
          "type": "address"
        },
        {
          "internalType": "uint256",
          "name": "tokenId",
          "type": "uint256"
        }
      ],
      "name": "safeTransferFrom",
      "outputs": [],
      "stateMutability": "payable",
      "type": "function"
    },
    {
      "inputs": [
        {
          "internalType": "address",
          "name": "from",
          "type": "address"
        },
        {
          "internalType": "address",
          "name": "to",
          "type": "address"
        },
        {
          "internalType": "uint256",
          "name": "tokenId",
          "type": "uint256"
        },
        {
          "internalType": "bytes",
          "name": "_data",
          "type": "bytes"
        }
      ],
      "name": "safeTransferFrom",
      "outputs": [],
      "stateMutability": "payable",
      "type": "function"
    },
    {
      "inputs": [
        {
          "internalType": "address",
          "name": "operator",
          "type": "address"
        },
        {
          "internalType": "bool",
          "name": "approved",
          "type": "bool"
        }
      ],
      "name": "setApprovalForAll",
      "outputs": [],
      "stateMutability": "nonpayable",
      "type": "function"
    },
    {
      "inputs": [
        {
          "internalType": "uint256",
          "name": "newDuration",
          "type": "uint256"
        }
      ],
      "name": "setAuctionDuration",
      "outputs": [],
      "stateMutability": "nonpayable",
      "type": "function"
    },
    {
      "inputs": [
        {
          "internalType": "string",
          "name": "newBaseURI",
          "type": "string"
        }
      ],
      "name": "setBaseURI",
      "outputs": [],
      "stateMutability": "nonpayable",
      "type": "function"
    },
    {
      "inputs": [
        {
          "internalType": "address",
          "name": "recipient",
          "type": "address"
        },
        {
          "internalType": "uint96",
          "name": "feeNumerator",
          "type": "uint96"
        }
      ],
      "name": "setDefaultRoyalty",
      "outputs": [],
      "stateMutability": "nonpayable",
      "type": "function"
    },
    {
      "inputs": [
        {
          "internalType": "uint256",
          "name": "revealTime",
          "type": "uint256"
        }
      ],
      "name": "setMetadataRevealTime",
      "outputs": [],
      "stateMutability": "nonpayable",
      "type": "function"
    },
    {
      "inputs": [
        {
          "internalType": "string",
          "name": "newMetadataRootHash",
          "type": "string"
        }
      ],
      "name": "setMetadataRootHash",
      "outputs": [],
      "stateMutability": "nonpayable",
      "type": "function"
    },
    {
      "inputs": [],
      "name": "startAuction",
      "outputs": [],
      "stateMutability": "nonpayable",
      "type": "function"
    },
    {
      "inputs": [],
      "name": "startPrice",
      "outputs": [
        {
          "internalType": "uint256",
          "name": "",
          "type": "uint256"
        }
      ],
      "stateMutability": "view",
      "type": "function"
    },
    {
      "inputs": [
        {
          "internalType": "uint256",
          "name": "delayDuration",
          "type": "uint256"
        }
      ],
      "name": "startPublicMint",
      "outputs": [],
      "stateMutability": "nonpayable",
      "type": "function"
    },
    {
      "inputs": [],
      "name": "startWhitelistSale",
      "outputs": [],
      "stateMutability": "nonpayable",
      "type": "function"
    },
    {
      "inputs": [
        {
          "internalType": "bytes4",
          "name": "interfaceId",
          "type": "bytes4"
        }
      ],
      "name": "supportsInterface",
      "outputs": [
        {
          "internalType": "bool",
          "name": "",
          "type": "bool"
        }
      ],
      "stateMutability": "view",
      "type": "function"
    },
    {
      "inputs": [],
      "name": "symbol",
      "outputs": [
        {
          "internalType": "string",
          "name": "",
          "type": "string"
        }
      ],
      "stateMutability": "view",
      "type": "function"
    },
    {
      "inputs": [],
      "name": "teamMinted",
      "outputs": [
        {
          "internalType": "bool",
          "name": "",
          "type": "bool"
        }
      ],
      "stateMutability": "view",
      "type": "function"
    },
    {
      "inputs": [
        {
          "internalType": "uint256",
          "name": "tokenId",
          "type": "uint256"
        }
      ],
      "name": "tokenURI",
      "outputs": [
        {
          "internalType": "string",
          "name": "",
          "type": "string"
        }
      ],
      "stateMutability": "view",
      "type": "function"
    },
    {
      "inputs": [],
      "name": "totalSupply",
      "outputs": [
        {
          "internalType": "uint256",
          "name": "result",
          "type": "uint256"
        }
      ],
      "stateMutability": "view",
      "type": "function"
    },
    {
      "inputs": [
        {
          "internalType": "address",
          "name": "from",
          "type": "address"
        },
        {
          "internalType": "address",
          "name": "to",
          "type": "address"
        },
        {
          "internalType": "uint256",
          "name": "tokenId",
          "type": "uint256"
        }
      ],
      "name": "transferFrom",
      "outputs": [],
      "stateMutability": "payable",
      "type": "function"
    },
    {
      "inputs": [
        {
          "internalType": "address",
          "name": "newOwner",
          "type": "address"
        }
      ],
      "name": "transferOwnership",
      "outputs": [],
      "stateMutability": "nonpayable",
      "type": "function"
    },
    {
      "inputs": [],
      "name": "unpause",
      "outputs": [],
      "stateMutability": "nonpayable",
      "type": "function"
    },
    {
      "inputs": [
        {
          "internalType": "address",
          "name": "token",
          "type": "address"
        },
        {
          "internalType": "uint256",
          "name": "requiredAmount",
          "type": "uint256"
        }
      ],
      "name": "updateWhitelistToken",
      "outputs": [],
      "stateMutability": "nonpayable",
      "type": "function"
    },
    {
      "inputs": [],
      "name": "whitelistEndTime",
      "outputs": [
        {
          "internalType": "uint256",
          "name": "",
          "type": "uint256"
        }
      ],
      "stateMutability": "view",
      "type": "function"
    },
    {
      "inputs": [
        {
          "internalType": "uint256",
          "name": "quantity",
          "type": "uint256"
        },
        {
          "internalType": "address",
          "name": "token",
          "type": "address"
        }
      ],
      "name": "whitelistMint",
      "outputs": [],
      "stateMutability": "payable",
      "type": "function"
    },
    {
      "inputs": [],
      "name": "whitelistMinted",
      "outputs": [
        {
          "internalType": "uint256",
          "name": "",
          "type": "uint256"
        }
      ],
      "stateMutability": "view",
      "type": "function"
    },
    {
      "inputs": [
        {
          "internalType": "address",
          "name": "",
          "type": "address"
        }
      ],
      "name": "whitelistMints",
      "outputs": [
        {
          "internalType": "uint256",
          "name": "",
          "type": "uint256"
        }
      ],
      "stateMutability": "view",
      "type": "function"
    },
    {
      "inputs": [
        {
          "internalType": "uint256",
          "name": "",
          "type": "uint256"
        }
      ],
      "name": "whitelistPrices",
      "outputs": [
        {
          "internalType": "uint256",
          "name": "",
          "type": "uint256"
        }
      ],
      "stateMutability": "view",
      "type": "function"
    },
    {
      "inputs": [
        {
          "internalType": "address",
          "name": "",
          "type": "address"
        }
      ],
      "name": "whitelistRequirements",
      "outputs": [
        {
          "internalType": "uint256",
          "name": "",
          "type": "uint256"
        }
      ],
      "stateMutability": "view",
      "type": "function"
    },
    {
      "inputs": [],
      "name": "whitelistStartTime",
      "outputs": [
        {
          "internalType": "uint256",
          "name": "",
          "type": "uint256"
        }
      ],
      "stateMutability": "view",
      "type": "function"
    },
    {
      "inputs": [],
      "name": "withdraw",
      "outputs": [],
      "stateMutability": "nonpayable",
      "type": "function"
    },
    {
      "inputs": [],
      "name": "withdrawAffiliateEarnings",
      "outputs": [],
      "stateMutability": "nonpayable",
      "type": "function"
    }
  ],
  "bytecode": "0x6010805460ff191690556509184e72a00060115564e8d4a510006012556102586013556019805461ffff19169055610100604052611159608090815261115a60a05261115b60c05261115c60e05261005b90601a906004610282565b506040805160808101825264174876e80081526445d964b8006020820152648bb2c970009181019190915264d18c2e2800606082015261009f9060219060046102c6565b503480156100ac57600080fd5b506040516132353803806132358339810160408190526100cb916103e7565b336040518060400160405280600f81526020016e111d5d18da105d58dd1a5bdb939195608a1b81525060405180604001604052806005815260200164111053919560da1b81525081600290816101219190610505565b50600361012e8282610505565b505060008055506001600160a01b03811661016457604051631e4fbdf760e01b8152600060048201526024015b60405180910390fd5b61016d81610230565b506001600c55600d805460ff191690556127108511156101cf5760405162461bcd60e51b815260206004820152601860248201527f4d617820737570706c792065786365656473206c696d69740000000000000000604482015260640161015b565b600f85905560176101e08582610505565b5060186101ed8482610505565b50600e80546001600160a01b0319166001600160a01b03928316179055600d8054610100600160a81b0319166101009390921692909202179055506105c3915050565b600b80546001600160a01b038381166001600160a01b0319831681179093556040519116919082907f8be0079c531659141344cd1fd0a4f28419497f9722a3daafe3b4186f6b6457e090600090a35050565b82600481019282156102b6579160200282015b828111156102b6578251829061ffff16905591602001919060010190610295565b506102c29291506102fd565b5090565b82600481019282156102b6579160200282015b828111156102b6578251829064ffffffffff169055916020019190600101906102d9565b5b808211156102c257600081556001016102fe565b634e487b7160e01b600052604160045260246000fd5b600082601f83011261033957600080fd5b81516001600160401b0381111561035257610352610312565b604051601f8201601f19908116603f011681016001600160401b038111828210171561038057610380610312565b60405281815283820160200185101561039857600080fd5b60005b828110156103b75760208186018101518383018201520161039b565b506000918101602001919091529392505050565b80516001600160a01b03811681146103e257600080fd5b919050565b600080600080600060a086880312156103ff57600080fd5b855160208701519095506001600160401b0381111561041d57600080fd5b61042988828901610328565b604088015190955090506001600160401b0381111561044757600080fd5b61045388828901610328565b935050610462606087016103cb565b9150610470608087016103cb565b90509295509295909350565b600181811c9082168061049057607f821691505b6020821081036104b057634e487b7160e01b600052602260045260246000fd5b50919050565b601f82111561050057806000526020600020601f840160051c810160208510156104dd5750805b601f840160051c820191505b818110156104fd57600081556001016104e9565b50505b505050565b81516001600160401b0381111561051e5761051e610312565b6105328161052c845461047c565b846104b6565b6020601f821160018114610566576000831561054e5750848201515b600019600385901b1c1916600184901b1784556104fd565b600084815260208120601f198516915b828110156105965787850151825560209485019460019092019101610576565b50848210156105b45786840151600019600387901b60f8161c191681555b50505050600190811b01905550565b612c63806105d26000396000f3fe60806040526004361061040f5760003560e01c80638456cb591161021e578063c87b56dd11610123578063eb54f9ec116100ab578063f1a9af891161007a578063f1a9af8914610b74578063f2fde38b14610b8a578063f7ee7a4314610baa578063fd99cbed14610bbf578063ff44e91514610bd457600080fd5b8063eb54f9ec14610b13578063eb91d37e14610b29578063ebdfd72214610b3e578063f06e037814610b5457600080fd5b8063dc1a0911116100f2578063dc1a091114610a51578063dcc7ba2414610a71578063e593d1ef14610a90578063e8b5498d14610ab0578063e985e9c514610aca57600080fd5b8063c87b56dd146109f0578063d3cf00a314610a10578063d5abeb0114610a26578063d6038a2814610a3c57600080fd5b8063a271e525116101a6578063b24d6dd211610175578063b24d6dd214610963578063b5e4ba561461098f578063b868723e146109b4578063b88d4fde146109ca578063c2f637dc146109dd57600080fd5b8063a271e52514610903578063a283ded414610919578063a497e6741461092e578063b0199fa21461094e57600080fd5b80639182a9df116101ed5780639182a9df1461088e5780639292caaf146108a357806395d89b41146108b9578063989bdbb6146108ce578063a22cb465146108e357600080fd5b80638456cb59146108305780638990694f146108455780638a787e091461085b5780638da5cb5b1461087057600080fd5b80633ccfd60b116103245780636545d619116102ac5780636e56539b1161027b5780636e56539b146107a557806370a08231146107bb578063715018a6146107db57806371bcf917146107f05780637df448e11461081057600080fd5b80636545d6191461074e57806369d2ceb1146107615780636b64c7691461077b5780636c0360eb1461079057600080fd5b806344f4f0e8116102f357806344f4f0e8146106bf57806355f804b3146106df578063571b1f8a146106ff5780635c975abb146107165780636352211e1461072e57600080fd5b80633ccfd60b146106625780633f0a616e146106775780633f4ba83a1461069757806342842e0e146106ac57600080fd5b80630da51cd7116103a75780631a1b33cb116103765780631a1b33cb146105c457806323b872dd146105e45780632a55205a146105f757806330fb30a81461063657806332cb6b0c1461064c57600080fd5b80630da51cd714610556578063110608b41461056b5780631160a7441461058b57806318160ddd146105ab57600080fd5b8063081812fc116103e3578063081812fc146104c8578063095ea7b3146105005780630cbf54c8146105135780630d11d8221461052957600080fd5b80628af2e61461041457806301ffc9a71461045457806304634d8d1461048457806306fdde03146104a6575b600080fd5b34801561042057600080fd5b5061044161042f366004612522565b60286020526000908152604090205481565b6040519081526020015b60405180910390f35b34801561046057600080fd5b5061047461046f366004612555565b610be9565b604051901515815260200161044b565b34801561049057600080fd5b506104a461049f366004612572565b610bfa565b005b3480156104b257600080fd5b506104bb610c10565b60405161044b9190612607565b3480156104d457600080fd5b506104e86104e336600461261a565b610ca2565b6040516001600160a01b03909116815260200161044b565b6104a461050e366004612633565b610cdd565b34801561051f57600080fd5b5061044160135481565b34801561053557600080fd5b50610441610544366004612522565b601f6020526000908152604090205481565b34801561056257600080fd5b50610441610ce9565b34801561057757600080fd5b506104a4610586366004612522565b610d31565b34801561059757600080fd5b506104746105a636600461261a565b610db3565b3480156105b757600080fd5b5060015460005403610441565b3480156105d057600080fd5b506104416105df36600461261a565b610ddd565b6104a46105f236600461265f565b610df4565b34801561060357600080fd5b506106176106123660046126a0565b610f45565b604080516001600160a01b03909316835260208301919091520161044b565b34801561064257600080fd5b5061044160165481565b34801561065857600080fd5b5061044161271081565b34801561066e57600080fd5b506104a4610fca565b34801561068357600080fd5b50600e546104e8906001600160a01b031681565b3480156106a357600080fd5b506104a461105a565b6104a46106ba36600461265f565b61106c565b3480156106cb57600080fd5b506104a46106da36600461261a565b61108c565b3480156106eb57600080fd5b506104a46106fa366004612752565b6110e7565b34801561070b57600080fd5b506104416201518081565b34801561072257600080fd5b50600d5460ff16610474565b34801561073a57600080fd5b506104e861074936600461261a565b61111f565b6104a461075c36600461279b565b61112a565b34801561076d57600080fd5b506019546104749060ff1681565b34801561078757600080fd5b506104a461133e565b34801561079c57600080fd5b506104bb61136d565b3480156107b157600080fd5b506104416103e881565b3480156107c757600080fd5b506104416107d6366004612522565b6113fb565b3480156107e757600080fd5b506104a4611441565b3480156107fc57600080fd5b5061044161080b36600461261a565b611453565b34801561081c57600080fd5b506104a461082b36600461261a565b611463565b34801561083c57600080fd5b506104a46114b5565b34801561085157600080fd5b5061044160275481565b34801561086757600080fd5b50610441606481565b34801561087c57600080fd5b50600b546001600160a01b03166104e8565b34801561089a57600080fd5b506104a46114c5565b3480156108af57600080fd5b5061044160255481565b3480156108c557600080fd5b506104bb611576565b3480156108da57600080fd5b506104a4611585565b3480156108ef57600080fd5b506104a46108fe3660046127c0565b6115f9565b34801561090f57600080fd5b5061044161025881565b34801561092557600080fd5b506104a4611665565b34801561093a57600080fd5b506104a461094936600461261a565b611765565b34801561095a57600080fd5b506104bb6117ca565b34801561096f57600080fd5b5061044161097e366004612522565b602080526000908152604090205481565b34801561099b57600080fd5b50600d546104e89061010090046001600160a01b031681565b3480156109c057600080fd5b5061044160125481565b6104a46109d83660046127f3565b6117d7565b6104a46109eb36600461279b565b611818565b3480156109fc57600080fd5b506104bb610a0b36600461261a565b611af3565b348015610a1c57600080fd5b5061044160155481565b348015610a3257600080fd5b50610441600f5481565b348015610a4857600080fd5b506104a4611b6e565b348015610a5d57600080fd5b50610474610a6c366004612873565b611c49565b348015610a7d57600080fd5b5060195461047490610100900460ff1681565b348015610a9c57600080fd5b506104a4610aab366004612633565b611ced565b348015610abc57600080fd5b506010546104749060ff1681565b348015610ad657600080fd5b50610474610ae5366004612873565b6001600160a01b03918216600090815260076020908152604080832093909416825291909152205460ff1690565b348015610b1f57600080fd5b5061044160145481565b348015610b3557600080fd5b50610441611d10565b348015610b4a57600080fd5b5061044160265481565b348015610b6057600080fd5b506104a4610b6f366004612752565b611da7565b348015610b8057600080fd5b5061044160115481565b348015610b9657600080fd5b506104a4610ba5366004612522565b611e0f565b348015610bb657600080fd5b50610441600a81565b348015610bcb57600080fd5b5061044160c881565b348015610be057600080fd5b506104a4611e4f565b6000610bf482611e91565b92915050565b610c02611ec6565b610c0c8282611ef3565b5050565b606060028054610c1f906128a1565b80601f0160208091040260200160405190810160405280929190818152602001828054610c4b906128a1565b8015610c985780601f10610c6d57610100808354040283529160200191610c98565b820191906000526020600020905b815481529060010190602001808311610c7b57829003601f168201915b5050505050905090565b6000610cad82611f96565b610cc157610cc16333d1c03960e21b611fd8565b506000908152600660205260409020546001600160a01b031690565b610c0c82826001611fe2565b60006021600360fa602754610cfe91906128f1565b11610d175760fa602754610d1291906128f1565b610d1a565b60035b60048110610d2a57610d2a612913565b0154905090565b610d39611ec6565b60105460ff1615610d5d57604051630d8a755560e11b815260040160405180910390fd5b600f5460c8610d6f6001546000540390565b610d799190612929565b1115610d985760405163c30436e960e01b815260040160405180910390fd5b610da38160c8612085565b506010805460ff19166001179055565b601e8160048110610dc357600080fd5b60209182820401919006915054906101000a900460ff1681565b601a8160048110610ded57600080fd5b0154905081565b6000610dff8261213e565b90506001600160a01b038085169082168114610e2457610e2462a1148160e81b611fd8565b600083815260066020526040902080543380821490841417610e5e57610e4a8733610ae5565b610e5e57610e5e632ce44b5f60e11b611fd8565b8015610e6957600082555b6001600160a01b038781166000908152600560205260408082208054600019019055918816808252919020805460010190554260a01b17600160e11b17600086815260046020526040902055600160e11b8416610ef45760018501600081815260046020526040902054610ef2576000548114610ef25760008181526004602052604090208590555b505b6001600160a01b0386168581857fddf252ad1be2c89b69c2b068fc378daa952ba7f163c4a11628f55a4df523b3ef600080a480610f3b57610f3b633a954ecd60e21b611fd8565b5050505050505050565b6000828152600a6020526040812080548291906001600160a01b03811690600160a01b90046001600160601b031681610f995750506009546001600160a01b03811690600160a01b90046001600160601b03165b6000612710610fb16001600160601b0384168961293c565b610fbb91906128f1565b92989297509195505050505050565b610fd2611ec6565b6000610fe6600b546001600160a01b031690565b6001600160a01b03164760405160006040518083038185875af1925050503d8060008114611030576040519150601f19603f3d011682016040523d82523d6000602084013e611035565b606091505b505090508061105757604051631d42c86760e21b815260040160405180910390fd5b50565b611062611ec6565b61106a6121cb565b565b611087838383604051806020016040528060008152506117d7565b505050565b611094611ec6565b60265442116110b657604051630ffe73a960e11b815260040160405180910390fd5b601554156110d7576040516301e500f360e51b815260040160405180910390fd5b6110e18142612929565b60155550565b6110ef611ec6565b60195460ff1615611113576040516313ef243160e11b815260040160405180910390fd5b6017610c0c828261299a565b6000610bf48261213e565b611132612218565b61113a612242565b60255460000361115d576040516302664e7160e11b815260040160405180910390fd5b60255442108061116e575060265442115b1561118c576040516343692ef360e01b815260040160405180910390fd5b6111963382611c49565b6111b3576040516397d40e1b60e01b815260040160405180910390fd5b6103e8826027546111c49190612929565b11156111e357604051631d9a23db60e11b815260040160405180910390fd5b336000908152601f60205260409020546111ff90600a90612929565b42101561121f576040516374006bc160e11b815260040160405180910390fd5b336000908152601f60205260408120429055611239610ce9565b90506000611247848361293c565b90508034101561126a5760405163cd1c886760e01b815260040160405180910390fd5b33600090815260286020526040902054606490611288908690612929565b11156112a7576040516343dd7c8360e01b815260040160405180910390fd5b33600090815260286020526040812080548692906112c6908490612929565b909155506112d690503385612085565b83602760008282546112e89190612929565b909155506112f7905081612266565b604080518581526020810183905233917f25b428dfde728ccfaddad7e29e4ac23c24ed7fd1a6e3e3f91894a9a073f5dfff910160405180910390a25050610c0c6001600c55565b611346611ec6565b601454156113675760405163628e388360e01b815260040160405180910390fd5b42601455565b6017805461137a906128a1565b80601f01602080910402602001604051908101604052809291908181526020018280546113a6906128a1565b80156113f35780601f106113c8576101008083540402835291602001916113f3565b820191906000526020600020905b8154815290600101906020018083116113d657829003601f168201915b505050505081565b60006001600160a01b03821661141b5761141b6323d3ad8160e21b611fd8565b506001600160a01b031660009081526005602052604090205467ffffffffffffffff1690565b611449611ec6565b61106a60006122aa565b60218160048110610ded57600080fd5b61146b611ec6565b60155460000361148e5760405163b35ba98d60e01b815260040160405180910390fd5b60155481116114b05760405163cc447d1560e01b815260040160405180910390fd5b601655565b6114bd611ec6565b61106a6122fc565b6114cd611ec6565b6016546000036114f05760405163bac1a50560e01b815260040160405180910390fd5b60165442101561151357604051634c54858560e01b815260040160405180910390fd5b601954610100900460ff161561153c576040516375dbda3d60e11b815260040160405180910390fd5b6019805461ff0019166101001790556040517ffaa4867c3ad82b35eef727eb877061cab7f6eb3576904aea9bc952086807682290600090a1565b606060038054610c1f906128a1565b61158d611ec6565b60195460ff16156115b1576040516313ef243160e11b815260040160405180910390fd5b6019805460ff191660011790556040517fcf5d5344da9c18d0556d5c708d7d160afad5c1c81530e084eb5941cb4f3af605906115ef90601890612a59565b60405180910390a1565b3360008181526007602090815260408083206001600160a01b03871680855290835292819020805460ff191686151590811790915590519081529192917f17307eab39ab6107e8899845ad3d59bd9653f200f220920489ca2b5937696c31910160405180910390a35050565b61166d612218565b600e5460405163219d6b6760e21b81523360048201526000916001600160a01b031690638675ad9c90602401602060405180830381865afa1580156116b6573d6000803e3d6000fd5b505050506040513d601f19601f820116820180604052508101906116da9190612ae5565b9050806000036116fd57604051633d1e817560e21b815260040160405180910390fd5b600e5460405163ce91dab360e01b81523360048201526001600160a01b039091169063ce91dab390602401600060405180830381600087803b15801561174257600080fd5b505af1158015611756573d6000803e3d6000fd5b505050505061106a6001600c55565b61176d611ec6565b6014541561178e5760405163628e388360e01b815260040160405180910390fd5b60138190556040518181527faab6389d8f1c16ba1deb6e9831f5c5442cf4fcf99bf5bfa867460be408a91118906020015b60405180910390a150565b6018805461137a906128a1565b6117e2848484610df4565b6001600160a01b0383163b15611812576117fe84848484612339565b611812576118126368d2bf6b60e11b611fd8565b50505050565b611820612218565b611828612242565b602654421161184a5760405163ac4d09c760e01b815260040160405180910390fd5b336000908152601f602052604090205461186590600a612929565b421015611885576040516374006bc160e11b815260040160405180910390fd5b336000908152601f60205260408120429055600154815403600f546118aa9190612afe565b9050808311156118cd57604051631996b5f960e21b815260040160405180910390fd5b60006118d7611d10565b9050600060646118e883605f61293c565b6118f291906128f1565b90506000611900868361293c565b90508034101561192357604051631a84bc4160e21b815260040160405180910390fd5b6001600160a01b0385161580159061194457506001600160a01b0385163314155b15611a9757600e54604051634c2eb2e560e01b81526001600160a01b038781166004830152600092169063ba9cef5b908290634c2eb2e590602401602060405180830381865afa15801561199c573d6000803e3d6000fd5b505050506040513d601f19601f820116820180604052508101906119c09190612ae5565b6040518263ffffffff1660e01b81526004016119de91815260200190565b602060405180830381865afa1580156119fb573d6000803e3d6000fd5b505050506040513d601f19601f82011682018060405250810190611a1f9190612ae5565b600e54604051635033065960e11b81526001600160a01b038981166004830152602482018b9052604482018690526064820184905292935091169063a0660cb290608401600060405180830381600087803b158015611a7d57600080fd5b505af1158015611a91573d6000803e3d6000fd5b50505050505b611aa13387612085565b611aaa81612266565b604080518781526020810183905233917f25b428dfde728ccfaddad7e29e4ac23c24ed7fd1a6e3e3f91894a9a073f5dfff910160405180910390a250505050610c0c6001600c55565b6060611afe82611f96565b611b1257611b12630a14c4b560e41b611fd8565b6000611b1c612419565b90508051600003611b3c5760405180602001604052806000815250611b67565b80611b4684612428565b604051602001611b57929190612b11565b6040516020818303038152906040525b9392505050565b611b76611ec6565b600e546040805163b5ecff2560e01b815290516000926001600160a01b03169163b5ecff259160048083019260809291908290030181865afa158015611bc0573d6000803e3d6000fd5b505050506040513d601f19601f82011682018060405250810190611be49190612b40565b9050611bf36001546000540390565b61115814611c145760405163397d4b0960e21b815260040160405180910390fd5b60005b6004811015610c0c57611c41828260048110611c3557611c35612913565b6020020151600161246c565b600101611c17565b6001600160a01b038116600090815260208052604081205415801590611b6757506001600160a01b038281166000818152602080526040908190205490516370a0823160e01b81529286166004840152916370a0823190602401602060405180830381865afa158015611cc0573d6000803e3d6000fd5b505050506040513d601f19601f82011682018060405250810190611ce49190612ae5565b10159392505050565b611cf5611ec6565b6001600160a01b039091166000908152602080526040902055565b600d546011546012546014546013546040516319503cc560e11b8152600481019490945260248401929092526044830152606482015260009161010090046001600160a01b0316906332a0798a90608401602060405180830381865afa158015611d7e573d6000803e3d6000fd5b505050506040513d601f19601f82011682018060405250810190611da29190612ae5565b905090565b611daf611ec6565b60195460ff1615611dd3576040516313ef243160e11b815260040160405180910390fd5b6018611ddf828261299a565b507f12c5a7cea817d2204c5b0e383a73bf6863ec4e0014a9469b499597ee19a53e35816040516117bf9190612607565b611e17611ec6565b6001600160a01b038116611e4657604051631e4fbdf760e01b8152600060048201526024015b60405180910390fd5b611057816122aa565b611e57611ec6565b60255415611e785760405163a6ba76b960e01b815260040160405180910390fd5b426025819055611e8c906201518090612929565b602655565b60006001600160e01b0319821663152a902d60e11b1480610bf457506301ffc9a760e01b6001600160e01b0319831614610bf4565b600b546001600160a01b0316331461106a5760405163118cdaa760e01b8152336004820152602401611e3d565b6127106001600160601b038216811015611f3257604051636f483d0960e01b81526001600160601b038316600482015260248101829052604401611e3d565b6001600160a01b038316611f5c57604051635b6cc80560e11b815260006004820152602401611e3d565b50604080518082019091526001600160a01b039092168083526001600160601b039091166020909201829052600160a01b90910217600955565b60008054821015611fd35760005b5060008281526004602052604090205480611fc957611fc283612bbc565b9250611fa4565b600160e01b161590505b919050565b8060005260046000fd5b6000611fed8361111f565b90508180156120055750336001600160a01b03821614155b15612028576120148133610ae5565b612028576120286367d9dca160e11b611fd8565b60008381526006602052604080822080546001600160a01b0319166001600160a01b0388811691821790925591518693918516917f8c5be1e5ebec7d5bd14f71427d1e84f3dd0314c0f7b2291e5b200ac8c7c3b92591a450505050565b6000548161209d5761209d63b562e8dd60e01b611fd8565b60008181526004602090815260408083206001600160a01b0387164260a01b6001881460e11b17811790915580845260059092529091208054680100000000000000018502019055806120f9576120f9622e076360e81b611fd8565b818301825b808360007fddf252ad1be2c89b69c2b068fc378daa952ba7f163c4a11628f55a4df523b3ef600080a48181600101915081036120fe575060005550505050565b600081815260046020526040902054806121ab57600054821061216b5761216b636f96cda160e11b611fd8565b5b5060001901600081815260046020526040902054801561216c57600160e01b811661219657919050565b6121a6636f96cda160e11b611fd8565b61216c565b600160e01b81166121bb57919050565b611fd3636f96cda160e11b611fd8565b6121d3612486565b600d805460ff191690557f5db9ee0a495bf2e6ff9c91a7834c1ba4fdd244a5e8aa4e537bd38aeae4b073aa335b6040516001600160a01b0390911681526020016115ef565b6002600c540361223b57604051633ee5aeb560e01b815260040160405180910390fd5b6002600c55565b600d5460ff161561106a5760405163d93c066560e01b815260040160405180910390fd5b8034111561105757600061227a8234612afe565b604051909150339082156108fc029083906000818181858888f19350505050158015611087573d6000803e3d6000fd5b600b80546001600160a01b038381166001600160a01b0319831681179093556040519116919082907f8be0079c531659141344cd1fd0a4f28419497f9722a3daafe3b4186f6b6457e090600090a35050565b612304612242565b600d805460ff191660011790557f62e78cea01bee320cd4e420270b5ea74000d11b0c9f74754ebdbfc544b05a2586122003390565b604051630a85bd0160e11b81526000906001600160a01b0385169063150b7a029061236e903390899088908890600401612bd3565b6020604051808303816000875af19250505080156123a9575060408051601f3d908101601f191682019092526123a691810190612c10565b60015b6123fb573d8080156123d7576040519150601f19603f3d011682016040523d82523d6000602084013e6123dc565b606091505b5080516123f3576123f36368d2bf6b60e11b611fd8565b805181602001fd5b6001600160e01b031916630a85bd0160e11b1490505b949350505050565b606060178054610c1f906128a1565b606060a06040510180604052602081039150506000815280825b600183039250600a81066030018353600a9004806124425750819003601f19909101908152919050565b610c0c8282604051806020016040528060008152506124a9565b600d5460ff1661106a57604051638dfc202b60e01b815260040160405180910390fd5b6124b38383612085565b6001600160a01b0383163b15611087576000548281035b6124dd6000868380600101945086612339565b6124f1576124f16368d2bf6b60e11b611fd8565b8181106124ca57816000541461250657600080fd5b5050505050565b6001600160a01b038116811461105757600080fd5b60006020828403121561253457600080fd5b8135611b678161250d565b6001600160e01b03198116811461105757600080fd5b60006020828403121561256757600080fd5b8135611b678161253f565b6000806040838503121561258557600080fd5b82356125908161250d565b915060208301356001600160601b03811681146125ac57600080fd5b809150509250929050565b60005b838110156125d25781810151838201526020016125ba565b50506000910152565b600081518084526125f38160208601602086016125b7565b601f01601f19169290920160200192915050565b602081526000611b6760208301846125db565b60006020828403121561262c57600080fd5b5035919050565b6000806040838503121561264657600080fd5b82356126518161250d565b946020939093013593505050565b60008060006060848603121561267457600080fd5b833561267f8161250d565b9250602084013561268f8161250d565b929592945050506040919091013590565b600080604083850312156126b357600080fd5b50508035926020909101359150565b634e487b7160e01b600052604160045260246000fd5b60008067ffffffffffffffff8411156126f3576126f36126c2565b50604051601f19601f85018116603f0116810181811067ffffffffffffffff82111715612722576127226126c2565b60405283815290508082840185101561273a57600080fd5b83836020830137600060208583010152509392505050565b60006020828403121561276457600080fd5b813567ffffffffffffffff81111561277b57600080fd5b8201601f8101841361278c57600080fd5b612411848235602084016126d8565b600080604083850312156127ae57600080fd5b8235915060208301356125ac8161250d565b600080604083850312156127d357600080fd5b82356127de8161250d565b9150602083013580151581146125ac57600080fd5b6000806000806080858703121561280957600080fd5b84356128148161250d565b935060208501356128248161250d565b925060408501359150606085013567ffffffffffffffff81111561284757600080fd5b8501601f8101871361285857600080fd5b612867878235602084016126d8565b91505092959194509250565b6000806040838503121561288657600080fd5b82356128918161250d565b915060208301356125ac8161250d565b600181811c908216806128b557607f821691505b6020821081036128d557634e487b7160e01b600052602260045260246000fd5b50919050565b634e487b7160e01b600052601160045260246000fd5b60008261290e57634e487b7160e01b600052601260045260246000fd5b500490565b634e487b7160e01b600052603260045260246000fd5b80820180821115610bf457610bf46128db565b8082028115828204841417610bf457610bf46128db565b601f82111561108757806000526020600020601f840160051c8101602085101561297a5750805b601f840160051c820191505b818110156125065760008155600101612986565b815167ffffffffffffffff8111156129b4576129b46126c2565b6129c8816129c284546128a1565b84612953565b6020601f8211600181146129fc57600083156129e45750848201515b600019600385901b1c1916600184901b178455612506565b600084815260208120601f198516915b82811015612a2c5787850151825560209485019460019092019101612a0c565b5084821015612a4a5786840151600019600387901b60f8161c191681555b50505050600190811b01905550565b602081526000808354612a6b816128a1565b8060208601526001821660008114612a8a5760018114612aa657612ada565b60ff1983166040870152604082151560051b8701019350612ada565b86600052602060002060005b83811015612ad157815488820160400152600190910190602001612ab2565b87016040019450505b509195945050505050565b600060208284031215612af757600080fd5b5051919050565b81810381811115610bf457610bf46128db565b60008351612b238184602088016125b7565b835190830190612b378183602088016125b7565b01949350505050565b600060808284031215612b5257600080fd5b82601f830112612b6157600080fd5b6040516080810167ffffffffffffffff81118282101715612b8457612b846126c2565b604052806080840185811115612b9957600080fd5b845b81811015612ada578051612bae8161250d565b835260209283019201612b9b565b600081612bcb57612bcb6128db565b506000190190565b6001600160a01b0385811682528416602082015260408101839052608060608201819052600090612c06908301846125db565b9695505050505050565b600060208284031215612c2257600080fd5b8151611b678161253f56fea2646970667358221220ec42750f1dee47ac5f5fda2c978dfa0ff451a8e03c233b6bb6d87ceb820be22064736f6c634300081c0033",
  "linkReferences": {},
  "deployedLinkReferences": {}
}